{
  "_format": "hh-sol-artifact-1",
  "contractName": "Election",
  "sourceName": "contracts/Election.sol",
  "abi": [
    {
      "inputs": [],
      "stateMutability": "nonpayable",
      "type": "constructor"
    },
    {
      "anonymous": false,
      "inputs": [
        {
          "indexed": true,
          "internalType": "uint256",
          "name": "_candidateId",
          "type": "uint256"
        }
      ],
      "name": "votedEvent",
      "type": "event"
    },
    {
      "inputs": [
        {
          "internalType": "string",
          "name": "_name",
          "type": "string"
        },
        {
          "internalType": "string",
          "name": "_details",
          "type": "string"
        },
        {
          "internalType": "string",
          "name": "_election_id",
          "type": "string"
        }
      ],
      "name": "addCandidate",
      "outputs": [],
      "stateMutability": "nonpayable",
      "type": "function"
    },
    {
      "inputs": [],
      "name": "candidate",
      "outputs": [
        {
          "internalType": "string",
          "name": "",
          "type": "string"
        }
      ],
      "stateMutability": "view",
      "type": "function"
    },
    {
      "inputs": [
        {
          "internalType": "uint256",
          "name": "",
          "type": "uint256"
        }
      ],
      "name": "candidates",
      "outputs": [
        {
          "internalType": "uint256",
          "name": "id",
          "type": "uint256"
        },
        {
          "internalType": "string",
          "name": "name",
          "type": "string"
        },
        {
          "internalType": "uint256",
          "name": "voteCount",
          "type": "uint256"
        },
        {
          "internalType": "string",
          "name": "details",
          "type": "string"
        },
        {
          "internalType": "string",
          "name": "election_id",
          "type": "string"
        }
      ],
      "stateMutability": "view",
      "type": "function"
    },
    {
      "inputs": [],
      "name": "candidatesCount",
      "outputs": [
        {
          "internalType": "uint256",
          "name": "",
          "type": "uint256"
        }
      ],
      "stateMutability": "view",
      "type": "function"
    },
    {
      "inputs": [
        {
          "internalType": "uint256",
          "name": "_candidateId",
          "type": "uint256"
        }
      ],
      "name": "vote",
      "outputs": [],
      "stateMutability": "nonpayable",
      "type": "function"
    },
    {
      "inputs": [
        {
          "internalType": "address",
          "name": "",
          "type": "address"
        }
      ],
      "name": "voters",
      "outputs": [
        {
          "internalType": "bool",
          "name": "",
          "type": "bool"
        }
      ],
      "stateMutability": "view",
      "type": "function"
    }
  ],
  "bytecode": "0x608060405234801561001057600080fd5b50610b8d806100206000396000f3fe608060405234801561001057600080fd5b50600436106100625760003560e01c80630121b93f146100675780632d35a8a2146100835780633477ee2e146100a15780636c8381f8146100d5578063a3ec138d146100f3578063ad71f8dc14610123575b600080fd5b610081600480360381019061007c91906107a3565b61013f565b005b61008b610263565b6040516100989190610860565b60405180910390f35b6100bb60048036038101906100b691906107a3565b610269565b6040516100cc95949392919061087b565b60405180910390f35b6100dd610437565b6040516100ea919061083e565b60405180910390f35b61010d600480360381019061010891906106e3565b6104c5565b60405161011a9190610823565b60405180910390f35b61013d6004803603810190610138919061070c565b6104e5565b005b600160003373ffffffffffffffffffffffffffffffffffffffff1673ffffffffffffffffffffffffffffffffffffffff16815260200190815260200160002060009054906101000a900460ff161561019657600080fd5b6000811180156101a857506002548111155b6101b157600080fd5b60018060003373ffffffffffffffffffffffffffffffffffffffff1673ffffffffffffffffffffffffffffffffffffffff16815260200190815260200160002060006101000a81548160ff021916908315150217905550600080828152602001908152602001600020600201600081548092919061022e90610a42565b9190505550807ffff3c900d938d21d0990d786e819f29b8d05c1ef587b462b939609625b684b1660405160405180910390a250565b60025481565b6000602052806000526040600020600091509050806000015490806001018054610292906109df565b80601f01602080910402602001604051908101604052809291908181526020018280546102be906109df565b801561030b5780601f106102e05761010080835404028352916020019161030b565b820191906000526020600020905b8154815290600101906020018083116102ee57829003601f168201915b505050505090806002015490806003018054610326906109df565b80601f0160208091040260200160405190810160405280929190818152602001828054610352906109df565b801561039f5780601f106103745761010080835404028352916020019161039f565b820191906000526020600020905b81548152906001019060200180831161038257829003601f168201915b5050505050908060040180546103b4906109df565b80601f01602080910402602001604051908101604052809291908181526020018280546103e0906109df565b801561042d5780601f106104025761010080835404028352916020019161042d565b820191906000526020600020905b81548152906001019060200180831161041057829003601f168201915b5050505050905085565b60038054610444906109df565b80601f0160208091040260200160405190810160405280929190818152602001828054610470906109df565b80156104bd5780601f10610492576101008083540402835291602001916104bd565b820191906000526020600020905b8154815290600101906020018083116104a057829003601f168201915b505050505081565b60016020528060005260406000206000915054906101000a900460ff1681565b600260008154809291906104f890610a42565b91905055506040518060a001604052806002548152602001848152602001600081526020018381526020018281525060008060025481526020019081526020016000206000820151816000015560208201518160010190805190602001906105619291906105ae565b506040820151816002015560608201518160030190805190602001906105889291906105ae565b5060808201518160040190805190602001906105a59291906105ae565b50905050505050565b8280546105ba906109df565b90600052602060002090601f0160209004810192826105dc5760008555610623565b82601f106105f557805160ff1916838001178555610623565b82800160010185558215610623579182015b82811115610622578251825591602001919060010190610607565b5b5090506106309190610634565b5090565b5b8082111561064d576000816000905550600101610635565b5090565b600061066461065f84610908565b6108e3565b90508281526020810184848401111561067c57600080fd5b61068784828561099d565b509392505050565b60008135905061069e81610b29565b92915050565b600082601f8301126106b557600080fd5b81356106c5848260208601610651565b91505092915050565b6000813590506106dd81610b40565b92915050565b6000602082840312156106f557600080fd5b60006107038482850161068f565b91505092915050565b60008060006060848603121561072157600080fd5b600084013567ffffffffffffffff81111561073b57600080fd5b610747868287016106a4565b935050602084013567ffffffffffffffff81111561076457600080fd5b610770868287016106a4565b925050604084013567ffffffffffffffff81111561078d57600080fd5b610799868287016106a4565b9150509250925092565b6000602082840312156107b557600080fd5b60006107c3848285016106ce565b91505092915050565b6107d581610967565b82525050565b60006107e682610939565b6107f08185610944565b93506108008185602086016109ac565b61080981610b18565b840191505092915050565b61081d81610993565b82525050565b600060208201905061083860008301846107cc565b92915050565b6000602082019050818103600083015261085881846107db565b905092915050565b60006020820190506108756000830184610814565b92915050565b600060a0820190506108906000830188610814565b81810360208301526108a281876107db565b90506108b16040830186610814565b81810360608301526108c381856107db565b905081810360808301526108d781846107db565b90509695505050505050565b60006108ed6108fe565b90506108f98282610a11565b919050565b6000604051905090565b600067ffffffffffffffff82111561092357610922610ae9565b5b61092c82610b18565b9050602081019050919050565b600081519050919050565b600082825260208201905092915050565b600061096082610973565b9050919050565b60008115159050919050565b600073ffffffffffffffffffffffffffffffffffffffff82169050919050565b6000819050919050565b82818337600083830152505050565b60005b838110156109ca5780820151818401526020810190506109af565b838111156109d9576000848401525b50505050565b600060028204905060018216806109f757607f821691505b60208210811415610a0b57610a0a610aba565b5b50919050565b610a1a82610b18565b810181811067ffffffffffffffff82111715610a3957610a38610ae9565b5b80604052505050565b6000610a4d82610993565b91507fffffffffffffffffffffffffffffffffffffffffffffffffffffffffffffffff821415610a8057610a7f610a8b565b5b600182019050919050565b7f4e487b7100000000000000000000000000000000000000000000000000000000600052601160045260246000fd5b7f4e487b7100000000000000000000000000000000000000000000000000000000600052602260045260246000fd5b7f4e487b7100000000000000000000000000000000000000000000000000000000600052604160045260246000fd5b6000601f19601f8301169050919050565b610b3281610955565b8114610b3d57600080fd5b50565b610b4981610993565b8114610b5457600080fd5b5056fea264697066735822122010b31123282f0ba4414e83b749072fd7520c345efb23285c11bbe22777c8165364736f6c63430008040033",
  "linkReferences": {},
  "deployedLinkReferences": {}
}